:100000000C9463000C948B000C948B000C94CC0922
:100010000C94CC090C94CC090C948B000C948B00A0
:100020000C948B000C948B000C948B000C948B0024
:100030000C948B000C948B000C948B000C948B0014
:100040000C9482090C948B000C9450090C942A098E
:100050000C948B000C948B000C948B000C948B00F4
:100060000C948B000C948B0000000008000201002F
:100070000003040700000000000000000000000072
:1000800023002600290000000000240027002A0089
:1000900000000000250028002B00040404040404D0
:1000A0000404020202020202030303030303010227
:1000B00004081020408001020408102001020408F6
:1000C0001020900A501111241FBECFEFD8E0DEBFE0
:1000D000CDBF24E0A4E5B3E001C01D92AC36B20769
:1000E000E1F713E0A0E0B1E0E6E5FEE202C0059032
:1000F0000D92A435B107D9F710E0C2E6D0E004C0F4
:100100002197FE010E940F15C136D107C9F70E9441
:100110007F0B0C941E170C9400000895CF93DF936F
:10012000EC012FB7F8948091990390919A03A091D4
:100130009B03B0919C032FBF88879987AA87BB87B1
:10014000E881F9810284F385E02DCE01099597FFBE
:100150001EC02FB7F8948091990390919A03A091B3
:100160009B03B0919C032FBF488559856A857B8589
:10017000841B950BA60BB70B4C815D816E817F8133
:1001800084179507A607B707D8F28FEF9FEFDF9187
:10019000CF910895DB0114964D915C9115976D9167
:1001A0007C91DC01ED91FC910280F381E02D0994BA
:1001B000AF92BF92CF92DF92EF92FF920F931F9375
:1001C000CF93DF936C017B018B01040F151FEB01B3
:1001D0005E01AE18BF08C017D10759F06991D6016A
:1001E000ED91FC910190F081E02DC6010995892BDC
:1001F00079F7C501DF91CF911F910F91FF90EF909B
:10020000DF90CF90BF90AF900895FC01538D448D47
:10021000252F30E0842F90E0821B930B541710F0B1
:10022000CF96089501970895FC01918D828D9817BE
:1002300061F0A28DAE0FBF2FB11D5D968C91928D96
:100240009F5F9F73928F90E008958FEF9FEF0895C7
:10025000FC01918D828D981731F0828DE80FF11D90
:10026000858D90E008958FEF9FEF0895FC01918DAB
:10027000228D892F90E0805C9F4F821B91098F73A4
:100280009927089588EA93E00E94360121E0892B9E
:1002900009F420E0822F089580E090E0892B29F076
:1002A0000E94420181110C9400000895CF93DF93C6
:1002B000EC01E881F9810680F781E02D0995EA8952
:1002C000FB8980818F7E8083EA89FB898081877F9B
:1002D0008083EA89FB8980818F778083EA89FB8923
:1002E00080818F7D80838A8D898FDF91CF91089562
:1002F000FC01A48DA80FB92FB11DA35ABF4F2C919B
:10030000848D90E001968F739927848FA689B78991
:100310002C93A089B1898C91837080648C93938D88
:10032000848D981306C00288F389E02D80818F7D2B
:1003300080830895EF92FF920F931F93CF93DF93E3
:10034000EC0181E0888F9B8D8C8D98131AC0E88911
:10035000F989808185FF15C09FB7F894EE89FF89E0
:100360006083E889F98980818370806480839FBF7E
:1003700081E090E0DF91CF911F910F91FF90EF907E
:100380000895F62E0B8D10E00F5F1F4F0F7311278E
:10039000E02E8C8D8E110CC00FB607FCFACFE889C9
:1003A000F989808185FFF5CFCE010E947801F1CFD8
:1003B000EB8DEC0FFD2FF11DE35AFF4FF0829FB73D
:1003C000F8940B8FEA89FB8980818062CFCFCF932D
:1003D000DF93EC01888D8823B9F0AA89BB89E8896D
:1003E000F9898C9185FD03C0808186FD0DC00FB613
:1003F00007FCF7CF8C9185FFF2CF808185FFEDCF91
:10040000CE010E947801E9CFDF91CF9108953FB7E7
:10041000F8948091950390919603A0919703B091E1
:10042000980326B5A89B05C02F3F19F00196A11D82
:10043000B11D3FBFBA2FA92F982F8827BC01CD012E
:10044000620F711D811D911D42E0660F771F881F8D
:10045000991F4A95D1F708958F929F92AF92BF92BC
:10046000CF92DF92EF92FF924B015C010E94070254
:100470006B017C010E9407026C197D098E099F099E
:10048000683E734081059105A8F321E0821A910826
:10049000A108B10888EEC80E83E0D81EE11CF11C4B
:1004A00081149104A104B10429F7FF90EF90DF902B
:1004B000CF90BF90AF909F908F90089520919F0311
:1004C0003091A0032817390771F490919D03809112
:1004D0009E03981741F0E0919D03F0E0EC5AFC4F29
:1004E000808190E008958FEF9FEF08950895EF9237
:1004F000FF920F931F93CF93DF93DC015C96ED90F7
:10050000FC905D97E114F10479F481E090E013969A
:100510009C938E93129790E080E0DF91CF911F9192
:100520000F91FF90EF9008955196ED91FC915297A5
:1005300050968C915097982F90950FB75E962C916E
:100540005E97122F127021FD6095F894208111237F
:1005500019F1282B2083E7012197F1F728E0462F96
:1005600050E0308160FF1AC0382B3083E7012197BB
:10057000F1F7BA0175956795215089F7112381F03C
:100580008081892380830FBF5C968D919C91019718
:10059000F1F781E090E0C1CF2923DCCF3923E5CF0B
:1005A0009081892BEFCF20919F033091A0032817D2
:1005B000390771F480919E0320919D0390E0805C47
:1005C0009F4F821B910960E470E00E94C814089557
:1005D00090E080E0089520919F033091A0032817B8
:1005E0003907B9F490919D0380919E03981789F083
:1005F000E0919D03F0E0EC5AFC4F808120919D0337
:1006000030E02F5F3F4F2F73332720939D0390E0FF
:1006100008958FEF9FEF0895E0919F03F091A0035D
:10062000E817F90769F4A389B4899C9185898095B5
:1006300089238C931092A00310929F0381E0089568
:1006400080E0089590E080E00895FC010190002092
:10065000E9F73197AF01481B590BBC0188EA93E0D9
:100660000C94D8008F929F92AF92BF920F931F93DA
:10067000CF93DF93CDB7DEB7A1970FB6F894DEBF67
:100680000FBECDBF19A2423008F44AE08E010F5DC3
:100690001F4F842E912CB12CA12CA50194010E94F6
:1006A000AF13E62FB901CA01EA30F4F4E05DD801D6
:1006B000EE938D01232B242B252B79F790E080E0FE
:1006C000109719F0CD010E942503A1960FB6F8945A
:1006D000DEBF0FBECDBFDF91CF911F910F91BF90B5
:1006E000AF909F908F900895E95CE1CFCF92DF9219
:1006F000EF92FF92CF93DF936B017C016DE288EA6A
:1007000093E00E949A01EC0166277727CB016C19D0
:100710007D098E099F094AE00E9432038C0F9D1FBC
:10072000DF91CF91FF90EF90DF90CF9008950C94E0
:100730002503CF93DF9397FF0CC00E947603EC0153
:1007400086E691E00E9425038C0F9D1FDF91CF91DB
:1007500008954AE00E943203F2CFCF93DF930E94C4
:100760002503EC0186E691E00E9425038C0F9D1F76
:10077000DF91CF910895CF93DF93CDB7DEB7289760
:100780000FB6F894DEBF0FBECDBFDC014D915C917A
:10079000FE01319688E0DF011D928A95E9F730E08D
:1007A00070E020E0832F90E0DA010D900020E9F75F
:1007B0001197A41BB50B8A179B0760F0DF0180E03F
:1007C00070E09D012E1B3F0B26173707C4F59D9146
:1007D000890FF7CF840F951FDC019C9180ED890F65
:1007E00030FD15C08A3030F08FE9890F863038F43B
:1007F00089EA890F282F2295207F3F5FD3CF8FEB87
:10080000890F863010F489ECF4CF80E0F3CF8A3082
:1008100030F08FE9890F863050F489EA890FDF01C3
:10082000A70FB11D822B8C937F5F20E0E6CF8FEB6B
:10083000890F863010F489ECF1CF80E0F0CF8195FC
:10084000E60FF71F90818917A1F08091A70381110E
:1008500004C090E080E00E9456018091A70381309F
:1008600031F48091A5039091A6030E940C0380E0CF
:1008700001C081E028960FB6F894DEBF0FBECDBF51
:10088000DF91CF9108950F931F93CF93DF93FC01D6
:10089000048115810115110539F4FB011082DF91E6
:1008A000CF911F910F910895415051094017510761
:1008B00008F48A01EB01FC0160817181A801CE017D
:1008C0000E940F17C00FD11F1882E9CF0F931F93FB
:1008D000CF93DF938C01EB01FC0180819181009724
:1008E000E1F06881798161157105A9F04281538138
:1008F0002C813D814217530770F00E9408178C81AC
:100900009D81F801958384831D821C82DF91CF91A4
:100910001F910F9108950E94B11588819981F80166
:10092000918380838A819B81938382838C819D8143
:1009300095838483198218821B821A82E5CFCF9314
:10094000DF93EC0188819981009711F00E94B11525
:10095000198218821D821C821B821A82DF91CF911C
:100960000895FC0180819181009711F00C94B115DC
:1009700008950F931F93CF93DF93EC0188819981A2
:10098000009759F02A813B812617370730F081E024
:10099000DF91CF911F910F9108958B016F5F7F4F72
:1009A0000E943A16009759F0998388831B830A8323
:1009B0002C813D81232B59F7FC011082E8CF80E088
:1009C000E7CFEF92FF920F931F93CF93DF936115C1
:1009D000710541F480E0DF91CF911F910F91FF905D
:1009E000EF90089541155105B1F07B01EC010C81A8
:1009F0001D81040F151FB8010E94B904882351F30B
:100A0000288139818C819D81B701820F931F0E94BB
:100A100008171D830C8381E0DECFCF93DF93EC01B9
:100A2000FB0144815581608171810E94E104811143
:100A300003C0CE010E949F04CE01DF91CF910895A3
:100A4000EF92FF920F931F93CF93DF93EC017B0103
:100A50008A01BA010E94B90481110BC0CE010E9423
:100A60009F04CE01DF91CF911F910F91FF90EF90E6
:100A700008951D830C83B701888199810E9408170E
:100A8000F0CFCF93DF93EC01FB018617970749F076
:100A9000608171816115710541F0448155810E9429
:100AA0002005CE01DF91CF9108950E949F04F9CFD8
:100AB000FC011182108213821282158214820C941E
:100AC0004105FC0111821082138212821582148268
:100AD000FB0101900020E9F73197AF01461B570B4E
:100AE0000C942005EF92FF920F931F93CF93DF9307
:100AF00000D0CDB7DEB78C017B0168E671E00E94C3
:100B00006105C7010E948E0097FD0EC08A309105D5
:100B100059F089831A8241E050E0BE016F5F7F4F38
:100B2000C8010E94E104EDCFC8010F900F90DF9142
:100B3000CF911F910F91FF90EF900895AF92BF92C8
:100B4000CF92DF92EF92FF920F931F93CF93DF9399
:100B50007C016B015A0189012417350720F48B2D84
:100B60005901042F182F68E671E0C7010E94610542
:100B7000D6011496CD91DC91AC16BD0620F50C176C
:100B80001D0708F4E801D601ED91FC911197EC0FD7
:100B9000FD1F108110826D917C916A0D7B1D611586
:100BA0007105E9F0FB0101900020E9F73197AF01F1
:100BB000461B570BC7010E942005F60180819181D9
:100BC000C80FD91F1883C701DF91CF911F910F91D3
:100BD000FF90EF90DF90CF90BF90AF900895C70146
:100BE0000E949F04EACFCF92DF92EF92FF920F9381
:100BF0001F93CF93DF93CDB7DEB761970FB6F8940D
:100C0000DEBF0FBECDBF7C0168E671E0CE010A9663
:100C10000E946105F7010481158198012350310973
:100C200047E050E0B701CE0101960E949E05BE014B
:100C30006F5F7F4FCE010A960E946604CE01019637
:100C40000E94B104A8014950510939F0BE016F5FFB
:100C50007F4FCE010A960E94430440E150E0BE015E
:100C6000605F7F4FCE0101960E945A116B017C019B
:100C7000CE010A960E94B104C701B60161960FB673
:100C8000F894DEBF0FBECDBFDF91CF911F910F91C2
:100C9000FF90EF90DF90CF900895CF92DF92EF9288
:100CA000FF920F931F93CF93DF93CDB7DEB72997B2
:100CB0000FB6F894DEBF0FBECDBF8C01862FF801B2
:100CC00011821082138212821582148240E19E01E9
:100CD0002F5F3F4F7901B90190E00E944E12F7015A
:100CE00001900020E9F73197AF014E195F09B70174
:100CF000C8010E942005F801C080D180C114D10430
:100D000071F0F60181916F01882349F0082E000CE3
:100D1000990B0E94F716F60131978083F2CFF80104
:100D200084819581019781F46AE271E0C7010E9494
:100D30006105B801C7010E940D05BC01C8010E94F0
:100D40004105C7010E94B104C80129960FB6F89465
:100D5000DEBF0FBECDBFDF91CF911F910F91FF90EE
:100D6000EF90DF90CF900895BF92CF92DF92EF92F5
:100D7000FF920F931F93CF93DF93CDB7DEB7E0972A
:100D80000FB6F894DEBF0FBECDBF6C01F62EB42EA9
:100D9000E22ECE018B960E944D066B2DCE018596DC
:100DA0000E944D0660E0CE014F960E944D066E2DCA
:100DB000CE0149960E944D06612FCE0143960E94B6
:100DC0004D06602FCE010D960E944D066F2D6B0DC6
:100DD000600F6E0D610F6195CE0107960E944D0662
:100DE00067E273E0CE0101960E946105BE01655D78
:100DF0007F4FCE0101960E940D05BE016B5D7F4FB6
:100E00000E940D05BE01615E7F4F0E940D05BE016F
:100E1000675E7F4F0E940D05BE016D5E7F4F0E9491
:100E20000D05BE01635F7F4F0E940D05BE01695F26
:100E30007F4F0E940D057C0142E050E066E671E0C4
:100E40000E94E104811103C0C7010E949F04B70101
:100E5000C6010E945805CE0101960E94B104CE0140
:100E600007960E94B104CE010D960E94B104CE01F6
:100E700043960E94B104CE0149960E94B104CE016E
:100E80004F960E94B104CE0185960E94B104CE0116
:100E90008B960E94B104C601E0960FB6F894DEBFAF
:100EA0000FBECDBFDF91CF911F910F91FF90EF90BB
:100EB000DF90CF90BF900895AF92BF92DF92EF92F4
:100EC000FF920F931F93CF93DF93CDB7DEB7689751
:100ED0000FB6F894DEBF0FBECDBF7C01D62E5A01EF
:100EE00068E671E0CE0143960E94610568E671E014
:100EF000CE010D960E94610501E010E0950143E0EE
:100F00006D2DCE0107960E94B4068091A703811132
:100F10008EC0BE01695F7F4F90E080E00E94CA00F2
:100F200064E170E080E090E00E942C02E09100001B
:100F3000F09101000084F185E02D90E080E00995BA
:100F400018161906B4F470E060E0CE0101960E9414
:100F50007205BE016F5F7F4FCE0143960E9466040B
:100F6000CE0101960E94B1048CE291E00E949703A9
:100F7000DDCF22E130E041E050E0BE016D5E7F4F09
:100F8000CE0101960E949E05BE016F5F7F4FCE018C
:100F90000D960E946604CE0101960E94B104BE0126
:100FA000635F7F4FCE0101960E94580567E0CE0136
:100FB00001960E94BB03182FCE0101960E94B10436
:100FC000113079F5D70111961C921E9213961C923E
:100FD0001E92129715961C921E921497BE016D5E7A
:100FE0007F4FC7010E946604CE0107960E94B1049C
:100FF000CE010D960E94B104CE0143960E94B10429
:10100000C70168960FB6F894DEBF0FBECDBFDF9163
:10101000CF911F910F91FF90EF90DF90BF90AF9015
:1010200008956AE271E0C7010E946105DDCF813059
:10103000D9F6BE01695F7F4F8091A5039091A60309
:101040000E94CA0064E170E080E090E00E942C02FF
:101050008091A5039091A603DC01ED91FC910084A1
:10106000F185E02D0995892B09F483CF6091A503C3
:101070007091A603CE0101960E947205BE016F5FBA
:101080007F4FCE0143960E946604CE0101960E94D6
:10109000B1048CE291E00E949703DACFCF92DF9205
:1010A000FF920F931F93CF93DF93CDB7DEB768976F
:1010B0000FB6F894DEBF0FBECDBFF82E6B018A01CC
:1010C00068E671E0CE0143960E94610568E671E032
:1010D000CE010D960E946105960146E06F2DCE016E
:1010E00007960E94B4068091A703811135C0BE0106
:1010F000695F7F4F90E080E00E94CA0062E370E089
:1011000080E090E00E942C02E0910000F09101004C
:101110000084F185E02D90E080E00995892B91F025
:1011200070E060E0CE0101960E947205BE016F5F23
:101130007F4FCE0143960E946604CE0101960E9425
:10114000B104E2CF8F89988D892BC9F58FE291E0A8
:101150000E94AD0310E063C0813009F060C0BE01A1
:10116000695F7F4F8091A5039091A6030E94CA00FA
:1011700062E370E080E090E00E942C028091A50381
:101180009091A603DC01ED91FC910084F185E02DA6
:101190000995892BB9F26091A5037091A603CE0140
:1011A00001960E947205BE016F5F7F4FCE0143968C
:1011B0000E946604CE0101960E94B104DFCFEB8944
:1011C000FC898081882311F220E130E041E050E089
:1011D000BE016D5E7F4FCE0101960E949E05BE014D
:1011E0006F5F7F4FCE010D960E946604CE0101967F
:1011F0000E94B104BE01635F7F4FCE0101960E9441
:10120000580566E0CE0101960E94BB03082FCE016F
:1012100001960E94B10411E0013009F09BCFCE018C
:1012200007960E94B104CE010D960E94B104CE0132
:1012300043960E94B104812F68960FB6F894DEBFE2
:101240000FBECDBFDF91CF911F910F91FF90DF9027
:10125000CF9008951F920F920FB60F9211242F93E3
:101260003F934F935F936F937F938F939F93AF932E
:10127000BF93EF93FF9388EA93E00E947801FF9178
:10128000EF91BF91AF919F918F917F916F915F91FE
:101290004F913F912F910F900FBE0F901F90189577
:1012A0001F920F920FB60F9211242F938F939F933B
:1012B000EF93FF93E091B803F091B9038081E0913F
:1012C000BE03F091BF0382FD1BC090818091C103DA
:1012D0008F5F8F732091C203821741F0E091C103A9
:1012E000F0E0E855FC4F958F8093C103FF91EF919B
:1012F0009F918F912F910F900FBE0F901F90189577
:101300008081F4CF1F920F920FB60F9211242F936A
:101310003F938F939F93AF93BF9380919903909145
:101320009A03A0919B03B0919C033091940323E016
:10133000230F2D3758F50196A11DB11D209394035D
:101340008093990390939A03A0939B03B0939C037B
:101350008091950390919603A0919703B091980383
:101360000196A11DB11D8093950390939603A093C0
:101370009703B0939803BF91AF919F918F913F9145
:101380002F910F900FBE0F901F90189526E8230FF6
:101390000296A11DB11DD2CF1F920F920FB60F92D0
:1013A00011242F933F934F935F936F937F938F936A
:1013B0009F93AF93BF93EF93FF93E0919F03F091BF
:1013C000A003309749F0A685B7858585968D91FF56
:1013D00014C09C918923A1F4FF91EF91BF91AF912B
:1013E0009F918F917F916F915F914F913F912F913D
:1013F0000F900FBE0F901F9018959C91892361F755
:10140000A389B4899C918589809589238C93868949
:1014100097890197F1F7608D718DA685B785558500
:1014200038E020E0CB010197F1F7822F90E095950D
:101430008795282F4C91452309F02068315091F76A
:10144000868D81FD209580919E0390E001968F739B
:10145000992730919D03381799F0A0919E03B0E031
:10146000AC5ABC4F2C9380939E03828D938D019731
:10147000F1F7A389B4898C919589892B8C93ACCF92
:10148000868D8160868FF1CF90E0FC01E859FF4F97
:101490002491FC01E255FF4F3491FC01E656FF4FC9
:1014A000E491EE23C9F0222339F0233001F1A8F4AE
:1014B000213019F1223029F1F0E0EE0FFF1FE05743
:1014C000FF4FA591B4918FB7F894EC91611126C0AC
:1014D00030953E233C938FBF08952730A9F02830E4
:1014E000C9F0243049F7809180008F7D03C080913E
:1014F00080008F7780938000DFCF84B58F7784BDA5
:10150000DBCF84B58F7DFBCF8091B0008F77809348
:10151000B000D2CF8091B0008F7DF9CF3E2BDACFD3
:101520000F931F93CF93DF931092AB031092AA03F4
:1015300088EE93E0A0E0B0E08093AC039093AD031D
:10154000A093AE03B093AF032AE031E03093A90338
:101550002093A80325EC30E03093B5032093B40327
:1015600024EC30E03093B7032093B60320EC30E056
:101570003093B9032093B80321EC30E03093BB03E0
:101580002093BA0322EC30E03093BD032093BC03D8
:1015900026EC30E03093BF032093BE031092C103CA
:1015A0001092C2031092C3031092C40310924A0413
:1015B0001092490480934B0490934C04A0934D04E3
:1015C000B0934E048CE191E09093480480934704DB
:1015D00010925E0410925D041092600410925F04F9
:1015E00010926204109261041092640410926304D9
:1015F000609165046E7F6D7F609365046695617090
:1016000081E0682783E00E94440A41EB50E0FA0140
:1016100064918DE990E0FC012491222399F030E05F
:10162000220F331FF901EA57FF4FA591B491F90139
:10163000E057FF4F259134912FB7F8943C91632BDD
:101640006C932FBFFA01449140935704FC0184919D
:10165000E82FF0E0EE0FFF1FE057FF4F85919491C8
:10166000909359048093580400EB10E0F801249102
:10167000CCE9D0E0FE0184918823C9F090E0880F86
:10168000991FFC01EA57FF4FA591B491FC01E05767
:10169000FF4F459154913FB7F8949C91822F8095CC
:1016A00098239C93FA019081892380833FBF809186
:1016B000650481FD04C061E082E00E94440A82E08A
:1016C00080935304F801049100935404FE01C491E3
:1016D000EC2FF0E0EE0FFF1FE458FF4F859194913F
:1016E000909356048093550488E395E090934604C4
:1016F00080934504DF91CF911F910F910895CF936F
:10170000DF93CDB7DEB7A7970FB6F894DEBF0FBE55
:10171000CDBF789484B5826084BD84B5816084BD7A
:1017200085B5826085BD85B5816085BD80916E007F
:10173000816080936E0010928100809181008260B0
:1017400080938100809181008160809381008091ED
:1017500080008160809380008091B10084608093DC
:10176000B1008091B00081608093B00080917A00D8
:10177000846080937A0080917A00826080937A00FE
:1017800080917A00816080937A0080917A008068ED
:1017900080937A001092C10081E08093A703E091CA
:1017A000B803F091B90382E08083E091B403F09133
:1017B000B5031082E091B603F091B7038FEC8083FC
:1017C0001092C003E091BC03F091BD0386E08083DA
:1017D000E091BA03F091BB03808180618083E09146
:1017E000BA03F091BB03808188608083E091BA03E3
:1017F000F091BB03808180688083E091BA03F0910F
:10180000BB0380818F7D808383E491E00E94AD03E0
:1018100087E494E09093A6038093A503109262045A
:10182000109261041092600410925F0410925E04A2
:1018300010925D048DE991E09093640480936304B9
:1018400090915304963108F047C02DEB30E030936F
:101850005E0420935D042BE931E030936004209313
:101860005F042CE231E03093620420936104209104
:10187000680084E0983048F031E09E3008F430E0B1
:1018800081E001C0880F3A95EAF7822B80936800C7
:101890002DE630E0983050F02BE630E09E3030F00E
:1018A0002CE630E0963110F030E020E030935B041D
:1018B00020935A04292F30E0983008F0D0C381E0FB
:1018C00001C0880F9A95EAF780935C0480916304C5
:1018D000909164040197F1F7809161049091620402
:1018E000892B21F180919F039091A00324E08734FC
:1018F0009207E1F0009711F00E940C0380916504BB
:101900008E7F8093650410929E0310929D0387E45E
:1019100094E09093A00380939F03E0915A04F09188
:101920005B04808190915C04892B80830091450445
:101930001091460441E051E062E070E087E00E94CF
:101940004E08813009F098C389E691E00E94AD030A
:1019500085E891E00E94AD0340E250E064E070E071
:1019600087E00E944E08813009F08FC38DEB91E033
:101970000E94AD0340E150E066E070E087E00E9425
:101980004E08813009F48AC381EA91E00E949703EE
:1019900088EA93E00E94560140E250E068E070E07F
:1019A00087E00E944E08813009F47DC381EA91E00E
:1019B0000E94970388EA93E00E9456014EE451E0AA
:1019C0006AE070E087E00E944E08813009F470C33D
:1019D00081EA91E00E94970388EA93E00E94560111
:1019E00050E040E06CE070E087E00E944E088130FB
:1019F00009F463C381EA91E00E94970388EA93E0C7
:101A00000E945601A8016EE070E087E00E944E0837
:101A1000813009F457C381EA91E00E94970388EA74
:101A200093E00E94560168E671E0CE0140960E9464
:101A3000610568E671E0CE010A960E94610541E009
:101A400050E067E0CE0101960E945C07BE016F5F27
:101A50007F4FCE0140960E946604CE0101960E94FF
:101A6000B1042BE030E049E050E0BE01605F7F4F01
:101A7000CE0101960E949E05BE016F5F7F4FCE0191
:101A80000A960E946604CE0101960E94B10443E0CA
:101A900050E0BE016F5F7F4FCE010A960E94430463
:101AA00040E150E0BE016A5E7F4FCE0101960E9488
:101AB0005A116B017C01CE010A960E94B104CE013D
:101AC00040960E94B104F7FC02C385E692E00E94B2
:101AD0009703C701B6010E94990368E671E0CE0141
:101AE00040960E94610568E671E0CE010A960E9468
:101AF000610542E050E067E0CE0101960E945C077C
:101B0000BE016F5F7F4FCE0140960E946604CE01FA
:101B100001960E94B1042BE030E049E050E0BE01A4
:101B2000605F7F4FCE0101960E949E05BE016F5FF0
:101B30007F4FCE010A960E946604CE0101960E9454
:101B4000B10443E050E0BE016F5F7F4FCE010A96C3
:101B50000E94430440E150E0BE016A5E7F4FCE0127
:101B600001960E945A116B017C01CE010A960E94D7
:101B7000B104CE0140960E94B104F7FCB1C28EE8D8
:101B800092E00E949703C701B6010E94990368E69C
:101B900071E0CE0140960E94610568E671E0CE01D9
:101BA0000A960E94610543E050E067E0CE0101968D
:101BB0000E945C07BE016F5F7F4FCE0140960E947E
:101BC0006604CE0101960E94B1042BE030E049E0AA
:101BD00050E0BE01605F7F4FCE0101960E949E05DE
:101BE000BE016F5F7F4FCE010A960E946604CE0150
:101BF00001960E94B10443E050E0BE016F5F7F4F49
:101C0000CE010A960E94430440E150E0BE016A5EA4
:101C10007F4FCE0101960E945A116B017C01CE01CB
:101C20000A960E94B104CE0140960E94B104F7FCCE
:101C300064C281EA92E00E949703C701B6010E9444
:101C4000990368E671E0CE010A960E94610544E0BE
:101C500050E067E0CE0101960E945C07BE016F5F15
:101C60007F4FCE010A960E946604CE0101960E9423
:101C7000B104BE01665F7F4FCE0101960E945805F8
:101C8000CE0101960E94F3056B017C01CE01019605
:101C90000E94B104CE010A960E94B104F7FC36C23C
:101CA00081EB92E00E949703C701B6010E9499035D
:101CB00068E671E0CE010A960E94610546E050E0B8
:101CC00067E0CE0101960E945C07BE016F5F7F4F07
:101CD000CE010A960E946604CE0101960E94B104CC
:101CE000BE01665F7F4FCE0101960E945805CE016E
:101CF00001960E94F3056B017C01CE0101960E94C2
:101D0000B104CE010A960E94B104F7FC08C280EC2F
:101D100092E00E949703C701B6010E94990368E60A
:101D200071E0CE010A960E94610548E050E067E04C
:101D3000CE0101960E945C07BE016F5F7F4FCE010E
:101D40000A960E946604CE0101960E94B104BE016B
:101D5000665F7F4FCE0101960E945805CE01019625
:101D60000E94F3056B017C01CE0101960E94B10433
:101D7000CE010A960E94B104F7FCDAC18FEC92E022
:101D80000E949703C701B6010E94990368E671E0BB
:101D9000CE010A960E9461054AE050E067E0CE015C
:101DA00001960E945C07BE016F5F7F4FCE010A96CD
:101DB0000E946604CE0101960E94B104BE01665FD6
:101DC0007F4FCE0101960E945805CE0101960E94D8
:101DD000F3056B017C01CE0101960E94B104CE0196
:101DE0000A960E94B104F7FCACC18EED92E00E940D
:101DF0009703C701B6010E94990368E671E0CE011E
:101E00000A960E9461054CE050E067E0CE01019621
:101E10000E945C07BE016F5F7F4FCE010A960E9451
:101E20006604CE0101960E94B104BE01665F7F4F39
:101E3000CE0101960E945805CE0101960E94F3053D
:101E40006B017C01CE0101960E94B104CE010A967D
:101E50000E94B104F7FC7EC18EEE92E00E949703CF
:101E6000C701B6010E94990368E671E0CE010A96A7
:101E70000E9461054EE050E067E0CE0101960E94AD
:101E80005C07BE016F5F7F4FCE010A960E94660419
:101E9000CE0101960E94B104BE01665F7F4FCE0164
:101EA00001960E945805CE0101960E94F3056B0130
:101EB0007C01CE0101960E94B104CE010A960E94D7
:101EC000B104F7FC50C18DEF92E00E949703C70167
:101ED000B6010E94990300E010E08CE093E00E94BC
:101EE00097034AE064E070E080E090E00E943203F3
:101EF00086E691E00E9425034091450450914604F6
:101F00006EE070E087E00E944E0841E051E062E040
:101F100070E087E00E944E0868E671E0CE0182968C
:101F20000E94610568E671E0CE014C960E94610551
:101F300068E671E0CE0146960E94610568E671E0B0
:101F4000CE0140960E94610568E671E0CE010A96D6
:101F50000E94610548E150E067E0CE0101960E94D1
:101F60005C07BE016F5F7F4FCE014C960E946604F6
:101F7000CE0101960E94B104BE01645E7F4FCE0186
:101F800001960E945805CE0101960E94F3056B014F
:101F90007C01CE0101960E94B1048EEFC8168FE736
:101FA000D806E104F10428F02FEFC21AD20AE108A2
:101FB000F108CE010A960E94B104CE0140960E941B
:101FC000B104CE0146960E94B104CE014C960E9407
:101FD000B104CE0182960E94B104C092A103D092B6
:101FE000A203E092A303F092A40389E293E00E948B
:101FF00097036091A1037091A2038091A303909134
:10200000A4032EE431E040E050E00E94DC14CA0159
:10201000B9010E94821220E030E0A9010E9423143D
:102020006B017C014B015C01AC019B010E94C3145C
:10203000882309F4A1C088E493E00E94250386E682
:1020400091E00E9425030115110509F446CF0E9475
:102050004201882309F441CF0E9400003ECF9E3008
:1020600040F42850310981E001C0880F2A95EAF731
:102070002BCC2E503109F7CF81EA91E00E949703D3
:1020800088EA93E00E94560167CC81EA91E00E94C1
:10209000970388EA93E00E9456016CCC89ED91E0A9
:1020A0000E94AD0379CC85EF91E00E94AD0386CC10
:1020B00081E192E00E94AD0393CC8DE292E00E9418
:1020C000AD03A0CC89E492E00E94AD03ACCC8DE7D7
:1020D00092E00E94970388EA93E00E945601FDCCAB
:1020E000C701B6010E9499038DE792E00E94970311
:1020F00088EA93E00E9456014ACD8DE792E00E9463
:10210000970388EA93E00E9456019BCD8DE792E009
:102110000E94970388EA93E00E945601C9CD8DE79B
:1021200092E00E94970388EA93E00E945601F7CD5F
:102130008DE792E00E94970388EA93E00E9456019F
:1021400025CE8DE792E00E94970388EA93E00E94F3
:10215000560153CE8DE792E00E94970388EA93E000
:102160000E94560181CE8DE792E00E94970388EA93
:1021700093E00E945601AFCE26013701E89477F82C
:102180002FEF3FEF4FE75FE7C301B2010E94C31497
:1021900081110DC02FEF3FEF4FE75FE7C301B201A1
:1021A0000E947B1218161CF48CE493E046CF2FEFAC
:1021B0003FEF4FE75FE4C701B6010E94BE14181657
:1021C0001CF480E593E039CF2FEF3FEF4FE75FEC52
:1021D000C701B6010E947B1287FDF3CF20E030E0FB
:1021E000A901C701B6010E947B1287FF0BC06DE2F7
:1021F00088EA93E00E949A0146015701B7FAB09429
:10220000B7F8B0942AE037ED43EA5BE3C501B401C7
:102210000E9423144B015C010E948F146B017C010E
:102220000E9480129B01AC01C501B4010E942214DE
:102230004B015C014AE0C701B6010E9432036EE225
:1022400088EA93E00E949A0120E030E040E251E405
:10225000C501B4010E94E1124B015C010E948F1480
:102260006B01F12CE12C4AE0C701B6010E94320358
:10227000C701B6010E9480129B01AC01C501B401E7
:102280000E94221420E030E040E251E40E94E1127A
:102290000E948F1490E080E04AE00E943203CFCE8B
:1022A0008CE191E0909348048093470487E494E0A4
:1022B0000C940C03B0E0A0E0E0E6F1E10C94DD1337
:1022C0005C016B017A016115710519F0FB019183C5
:1022D0008083E114F10449F0C7010297839728F045
:1022E00060E070E0CB019CC05E01E5012196F50144
:1022F0001081812F90E00E944512892BA9F71D3291
:1023000009F056C02196F501118101E0E114F104B4
:1023100009F4AEC0F0E1EF16F10409F08EC01033FD
:1023200041F488818F7D883509F083C01981229618
:102330000260E0E1EE2EF12C88248A94982CA82CDF
:10234000FFE0BF2E20E060E070E0CB0127010F2C02
:10235000000C66087708FE0150ED352E310E39E08D
:10236000331538F43FEB310F3A31A0F549EC342EF8
:10237000310E3E141F04BCF52F3FB9F086169706A8
:10238000A806B90670F1A30192010E949F13232DA4
:1023900030E050E040E0620F731F841F951F62170A
:1023A000730784079507E8F021E021961081D3CFC9
:1023B0001B3221F4E5012296F501118100E0A6CF40
:1023C00078E0E72EF12C88248A94982CA82C6FE1D1
:1023D000B62EB8CF3FE9310F3A3128F439EA332E1F
:1023E000C7CF2FEFE2CFC114D10431F02223E9F09F
:1023F0002197F601D183C08300FF07C09095809597
:10240000709561957F4F8F4F9F4F2F3F49F482E228
:1024100090E090936704809366046FEF7FEFCB01A9
:10242000CDB7DEB7E1E10C94F91301FFE5CF2297B8
:10243000E0CF10E3E114F10419F23AE0E316F104FD
:10244000E9F080E1E816F10409F473CFE8E0EE1654
:10245000F10409F4B8CF6FEF7FEFCB0197010F2C98
:10246000000C440B550B0E94AF1349015A016ACF6F
:10247000103309F456CF9AE0E92EF12C89E9882E21
:10248000982CA82C89E1B82E5DCF91110C9468127C
:10249000803219F089508550C8F70895BB27FB0199
:1024A0005527AA27880F991FAA1FA41710F0A41B4D
:1024B00083955051B9F7A05DAA3308F0A95DA193A7
:1024C000009779F7B111B1931192CB010C946B1273
:1024D000992788270895DC01FC01672F71917723E4
:1024E000E1F7329704C07C916D9370836291AE17CF
:1024F000BF07C8F308950E94BD1208F481E0089553
:10250000E89409C097FB3EF490958095709561958D
:102510007F4F8F4F9F4F9923A9F0F92F96E9BB2743
:102520009395F695879577956795B795F111F8CFBF
:10253000FAF4BB0F11F460FF1BC06F5F7F4F8F4F2A
:102540009F4F16C0882311F096E911C0772321F020
:102550009EE8872F762F05C0662371F096E8862FB8
:1025600070E060E02AF09A95660F771F881FDAF70F
:10257000880F9695879597F90895990F0008550F3C
:10258000AA0BE0E8FEEF16161706E807F907C0F0F9
:1025900012161306E407F50798F0621B730B840B01
:1025A000950B39F40A2661F0232B242B252B21F4DB
:1025B00008950A2609F4A140A6958FEF811D811D7B
:1025C00008950E94F4120C9465130E94571338F07A
:1025D0000E945E1320F0952311F00C944E130C947E
:1025E000541311240C9499130E94761370F3959F41
:1025F000C1F3950F50E0551F629FF001729FBB27FA
:10260000F00DB11D639FAA27F00DB11DAA1F649F95
:102610006627B00DA11D661F829F2227B00DA11D48
:10262000621F739FB00DA11D621F839FA00D611DCE
:10263000221F749F3327A00D611D231F849F600DEF
:10264000211D822F762F6A2F11249F5750409AF018
:10265000F1F088234AF0EE0FFF1FBB1F661F771FA4
:10266000881F91505040A9F79E3F510580F00C946F
:102670004E130C9499135F3FE4F3983ED4F3869580
:1026800077956795B795F795E7959F5FC1F7FE2B0F
:10269000880F911D9695879597F9089597F99F67EB
:1026A00080E870E060E008959FEF80EC08950024DA
:1026B0000A941616170618060906089500240A94A7
:1026C00012161306140605060895092E0394000C2D
:1026D00011F4882352F0BB0F40F4BF2B11F460FFBC
:1026E00004C06F5F7F4F8F4F9F4F089557FD9058E5
:1026F000440F551F59F05F3F71F04795880F97FBC6
:10270000991F61F09F3F79F087950895121613067F
:102710001406551FF2CF4695F1DF08C016161706AE
:102720001806991FF1CF86957105610508940895E3
:10273000E894BB2766277727CB0197F90895DB013B
:102740008F939F930E94D113BF91AF91A29F800D51
:10275000911DA39F900DB29F900D11240895A1E2A9
:102760001A2EAA1BBB1BFD010DC0AA1FBB1FEE1F0B
:10277000FF1FA217B307E407F50720F0A21BB30B56
:10278000E40BF50B661F771F881F991F1A9469F7D2
:1027900060957095809590959B01AC01BD01CF012E
:1027A00008950E941314A59F900DB49F900DA49FAF
:1027B000800D911D112408952F923F924F925F92A8
:1027C0006F927F928F929F92AF92BF92CF92DF9241
:1027D000EF92FF920F931F93CF93DF93CDB7DEB7A6
:1027E000CA1BDB0B0FB6F894DEBF0FBECDBF09943A
:1027F0002A88398848885F846E847D848C849B8491
:10280000AA84B984C884DF80EE80FD800C811B819E
:10281000AA81B981CE0FD11D0FB6F894DEBF0FBECD
:10282000CDBFED010895A29FB001B39FC001A39F4A
:10283000700D811D1124911DB29F700D811D1124F9
:10284000911D08955058BB27AA270E943A140C9452
:1028500065130E94571338F00E945E1320F039F47C
:102860009F3F19F426F40C9454130EF4E095E7FB03
:102870000C944E13E92F0E94761358F3BA1762078F
:1028800073078407950720F079F4A6F50C94981344
:102890000EF4E0950B2EBA2FA02D0B01B90190017B
:1028A0000C01CA01A0011124FF27591B99F0593FBF
:1028B00050F4503E68F11A16F040A22F232F342F07
:1028C0004427585FF3CF469537952795A795F04055
:1028D0005395C9F77EF41F16BA0B620B730B840B6A
:1028E000BAF09150A1F0FF0FBB1F661F771F881F22
:1028F000C2F70EC0BA0F621F731F841F48F487957A
:1029000077956795B795F7959E3F08F0B0CF93956B
:10291000880F08F09927EE0F9795879508950E94E4
:102920007E1388F09F5798F0B92F9927B751B0F0D0
:10293000E1F0660F771F881F991F1AF0BA95C9F743
:1029400014C0B13091F00E949813B1E008950C9436
:102950009813672F782F8827B85F39F0B93FCCF3E9
:10296000869577956795B395D9F73EF490958095C0
:10297000709561957F4F8F4F9F4F08950E94BD12B4
:1029800008F48FEF08950E94BD12880B990B0895EB
:1029900097FB072E16F4009407D077FD09D00E940C
:1029A000FB1407FC05D03EF4909581959F4F089548
:1029B000709561957F4F0895052E97FB1EF4009446
:1029C0000E94F31457FD07D00E94AF1307FC03D0F9
:1029D0004EF40C94F31450954095309521953F4F4B
:1029E0004F4F5F4F089590958095709561957F4FFB
:1029F0008F4F9F4F0895AA1BBB1B51E107C0AA1F11
:102A0000BB1FA617B70710F0A61BB70B881F991F8F
:102A10005A95A9F780959095BC01CD010895EE0FC8
:102A2000FF1F0590F491E02D09940F931F93CF930E
:102A3000DF938230910510F482E090E0E0916A0427
:102A4000F0916B0430E020E0B0E0A0E0309799F422
:102A50002115310509F44AC0281B390B24303105F2
:102A6000D8F58A819B816115710589F1FB019383FA
:102A70008283FE0111C04081518102811381481778
:102A80005907E0F04817590799F4109761F012962A
:102A90000C93129713961C933296CF01DF91CF912E
:102AA0001F910F91089500936A0410936B04F4CF63
:102AB0002115310551F04217530738F0A901DB0108
:102AC0009A01BD01DF01F801C1CFEF01F9CF909369
:102AD0006B0480936A04CDCFFE01E20FF31F819354
:102AE00091932250310939832883D7CF20916804EC
:102AF00030916904232B41F42091020130910301AC
:102B00003093690420936804209100013091010101
:102B10002115310541F42DB73EB740910401509184
:102B20000501241B350BE0916804F0916904E2175C
:102B3000F307A0F42E1B3F0B2817390778F0AC01E0
:102B40004E5F5F4F2417350748F04E0F5F1F5093BD
:102B5000690440936804819391939FCFF0E0E0E093
:102B60009CCFCF93DF930097E9F0FC01329713825B
:102B70001282A0916A04B0916B04ED0130E020E074
:102B80001097A1F420813181820F931F2091680456
:102B9000309169042817390709F061C0F09369047E
:102BA000E0936804DF91CF910895EA01CE17DF0723
:102BB000E8F54A815B819E0141155105B1F7E901B4
:102BC000FB83EA8349915991C40FD51FEC17FD0788
:102BD00061F4808191810296840F951FE9019983A8
:102BE0008883828193819B838A83F0E0E0E0129660
:102BF0008D919C9113970097B9F52D913C91119768
:102C0000CD010296820F931F2091680430916904D0
:102C10002817390739F6309751F510926B04109246
:102C20006A04B0936904A0936804BCCFD383C283C1
:102C300040815181840F951FC817D90761F44E5FF9
:102C40005F4F88819981480F591F518340838A8142
:102C50009B81938382832115310509F0B0CFF093D6
:102C60006B04E0936A049ECFFD01DC01C0CF1382A8
:102C70001282D7CFB0E0A0E0E0E4F6E10C94DE13DE
:102C80008C01009751F4CB010E9415158C01C801ED
:102C9000CDB7DEB7E0E10C94FA13FC01E60FF71FA5
:102CA0009C0122503109E217F30708F49DC0D901B5
:102CB000CD91DC911197C617D70798F0C530D10593
:102CC00030F3CE0104978617970708F3C61BD70B7E
:102CD0002297C193D1936D937C93CF010E94B1153C
:102CE000D6CF5B01AC1ABD0A4C018C0E9D1EA09183
:102CF0006A04B0916B04512C412CF12CE12C1097FB
:102D000031F580916804909169048815990509F05E
:102D10005CC04616570608F058C08091000190919B
:102D20000101009741F48DB79EB740910401509185
:102D30000501841B950BE817F90708F055C0F093BF
:102D40006904E0936804F90171836083A0CF8D91D9
:102D50009C91119712966C90129713967C901397F2
:102D6000A815B90559F56C0142E0C40ED11CCA146E
:102D7000DB0420F1AC014A195B09DA0112961597C0
:102D800080F06282738251834083D9016D937C937A
:102D9000E114F10471F0D7011396FC93EE931297AE
:102DA00076CF22968C0F9D1FF90191838083F301CA
:102DB000EFCFF0936B04E0936A0469CF481659068D
:102DC00008F42C017D01D3019ACFCB010E94151587
:102DD0007C01009749F0AE01B8010E94FF16C801BE
:102DE0000E94B115870153CF10E000E050CF911140
:102DF000089581568A5108F4805285580895FB0140
:102E0000DC0102C001900D9241505040D8F7089566
:102E1000FB01DC0101900D920020E1F70895FB0118
:102E2000DC014150504048F001900D920020C9F75C
:102E300001C01D9241505040E0F7089510E0C2E6F5
:102E4000D0E004C0FE010E940F152196C336D107C1
:062E5000C9F7F894FFCF62
:102E560000006C048000000000009A01D800050103
:102E6600E701360114012801000000007702D800AE
:102E760022037602D302EB025E0230003C3C0043A2
:102E86004845434B20594F555220534C4156455FB8
:102E9600494400524D43532D32333033205370652D
:102EA600656420636F6E74726F6C206D6F6465204D
:102EB60064656D6F0D0A0D0A00494E505F434F4E13
:102EC60054524F4C203A2020202020202020202021
:102ED600444F4E4500494E505F4D4F4445203A20E1
:102EE600202020202020202020202020444F4E4536
:102EF600006572726F7220696E2077726974696EEE
:102F06006720706172616D65746572730050505F01
:102F16004741494E203A20202020202020202020F2
:102F260020202020444F4E450050495F4741494EDE
:102F3600203A202020202020202020202020202071
:102F4600444F4E450056465F4741494E203A2020A1
:102F5600202020202020202020202020444F4E45C5
:102F6600004C5052203A20202020202020202020D3
:102F76002020202020202020444F4E45004143435E
:102F8600454C45524154494F4E203A20202020209E
:102F960020202020444F4E45005350454544203ABA
:102FA600202020202020202020202020202020201B
:102FB600444F4E45004445564943455F4D4F4442B4
:102FC60055535F414444524553533A2000455252AB
:102FD6004F5220494E2052454144494E4700494EE2
:102FE600505F434F4E54524F4C5F425954453A201E
:102FF60000494E505F4D4F44455F425954453A2073
:103006000050505F4741494E5F425954453A2000AF
:1030160056495F4741494E5F425954453A2000564A
:10302600465F4741494E5F425954453A20004C4954
:103036004E45535F5045525F524F543A200054520A
:10304600505F41434C5F574F52443A200054525010
:103056005F5350445F574F52443A200053656E64A5
:10306600696E6720737065656420636F6D6D616E50
:1030760064202852504D293A0043757272656E7469
:1030860020537065656420666565646261636B20C4
:103096002852504D293A20006E616E00696E660016
:0430A6006F766600DB
:00000001FF
